:100000006F00801300000000F4010000A801000050
:1000100000000000A8010000000000000000000037
:10002000A8010000A801000000000000000000007E
:10003000A801000000000000A8010000000000006E
:10004000A8010000A8010000A8010000A80100000C
:10005000A8010000A8010000A8010000A8010000FC
:10006000A8010000A8010000A8010000A8010000EC
:10007000A8010000A8010000A8010000A8010000DC
:10008000A8010000A8010000A8010000A8010000CC
:10009000A8010000A8010000A8010000A8010000BC
:1000A000A8010000A8010000A8010000A8010000AC
:1000B000A8010000A8010000A8010000A80100009C
:1000C000A8010000A8010000A8010000A80100008C
:1000D000A8010000A8010000A80100000000000025
:1000E000B70700E0938707389843137707086DFF39
:1000F0003727307813078708B70600E098C3938640
:10010000063871472548F1559C4293F70708EDFFE3
:100110003356E5003D8AB337C800B307F04093F784
:10012000770293870703B297A20793E757089CC209
:100130007117E31BB7FC8280970100209381412C4B
:1001400017510020130101EC096513050588731090
:1001500005308D46170500001305C5EA558D73104F
:100160005530138541C0938541C001466356B500A3
:1001700010C11105E34EB5FE13050028938541C05B
:10018000138641C06388C500144194C111059105CF
:10019000E39AC5FEB7F700E0054798C393074023ED
:1001A000739017347300203073251034153F732576
:1001B00000303D37732530342537732520340D3713
:1001C000B70700E0938707389843137707086DFF58
:1001D0000567130757A898C3B70700E09387073848
:1001E0009843137707086DFF37B7AAAA130737A8F4
:1001F00098C301A0371702401C47B7068000D58F6F
:100200001CC7B7270240094798C3B71702403707F2
:10021000080023A207001307170898C337079F0099
:1002200098C7B70700E023A207381307000823A0E8
:10023000E7388280411106C6E937371702401C4F64
:1002400093E7D7011CCFB7170140938707C0370743
:10025000001098CBB7170140254793870780D44FEC
:100260007D1775FFD847B706F8009386F63FB24072
:10027000758FB7A61009558FD8C7014541018280F7
:00000001FF
